:100000000C9448010C9480010C9480010C948001A4
:100010000C9480010C9480010C9480010C9480015C
:100020000C9480010C9480010C94D51B0C94A91C99
:100030000C94BF160C9480010C9480010C948001E8
:100040000C9480010C9480010C9480010C9480012C
:100050000C9480010C9445170C9480010C94800141
:100060000C9480010C9480010C9480010C9480010C
:100070000C9480010C9480010C9480010C948001FC
:100080000C9480010C9480010C9480010C948001EC
:100090000C9480010C9480010C9480010C948001DC
:1000A0000C9480010C9480010C9480012A002E0095
:1000B000380025022D002B002400250026002E02EA
:1000C0001150210022002300360026021E001F00CE
:1000D00020000000270227000000370028002A0027
:1000E00004000500060007002B0024002500260060
:1000F0000800105021002200230009000B001E0000
:100100001F00200000001B00270000002002280024
:10011000140363006F006D0062006900310030005D
:1001200031003600000020034D00610073006100C3
:100130006E006F007200690020004D006F007200B9
:1001400069007400610000000403090409023B0017
:10015000020100A0FA0904000001030101000921C5
:100160001101000122400007058103080001090474
:100170000100010300000009211101000122B60065
:10018000070582032000011201000200000008EDB3
:10019000FE000000010102000105010902A1018524
:1001A000020901A100050919012908150025019579
:1001B00008750181020501093009311581257F95F6
:1001C000027508810609381581257F95017508811A
:1001D00006050C0A38021581257F950175088106F0
:1001E000C0C005010980A101850319012AB70015C6
:1001F0000126B700950175108100C0050C0901A109
:1002000001850419012AA002150126A00295017595
:10021000108100C005010906A1018506050719E046
:1002200029E71500250195087501810205071900C8
:1002300029EF1500250195F07501810205081901C6
:100240002905950575019102950175039101C00578
:10025000010906A101050719E029E7150025019507
:1002600008750181029501750881010507190029AA
:10027000FF150026FF009506750881000508190185
:100280002905950575019102950175039101C0003D
:1002900011241FBECFEFDAE0DEBFCDBF04B603FEF0
:1002A00018C080918E0290918F02A0919002B0911F
:1002B00091028730904BA740B04B59F410928E02B8
:1002C00010928F021092900210929102E0E0F8E3F7
:1002D000099511E0A0E0B1E0E0EEFDE302C0059079
:1002E0000D92A638B107D9F722E0A6E8B1E001C027
:1002F0001D92AE38B207E1F70E94B1100C94D81EDF
:100300000C94000081E0089581E008950C9484012C
:1003100008950C9488011F93CF93DF9300D000D0F1
:100320000F92CDB7DEB749835A836B833091890131
:1003300089819A8131111DC06623B9F02223A9F069
:100340000E947807182F682F89819A810E942107BF
:1003500069817A81812F0F900F900F900F900F90ED
:10036000DF91CF911F910C94330E0E944F07182FED
:10037000EFCF0E94780769817A81EDCFFC01262FAB
:10038000408151816281738184810C948B0181E071
:100390000895CF93DF93EC0160E00E94BE01BE019F
:1003A000DF91CF910C9489010C94670F0C946A0F24
:1003B00008950E94CE050E94D8012FEF84E39CE0AF
:1003C000215080409040E1F700C000000C94691774
:1003D0000F931F93CF93DF938C0161E00E94BE01C6
:1003E000EC01B8010E9486018823A9F1B801CE0171
:1003F0000E941015882379F1B801CE010E943D13A7
:10040000882349F1B801CE010E947A14882319F19A
:10041000F8018281882361F0CB35FDE5DF0721F10A
:1004200070F4C115ECE5DE07A1F0CF3DDC45C9F065
:10043000C801DF91CF911F910F910C948201CC35AF
:100440008DE5D807A1F0CD35DD4591F70E94AD0BC4
:10045000EFCF0E94D90180E0DF91CF911F910F91E2
:1004600008950E94670CF7CF0E94B60BE1CF0E945F
:10047000B90BDECF0E94A4160C9452020E945502C2
:100480000C94A81608950C94420281E008950C94EF
:1004900045020895CF93C82F0E9443028C2FCF911D
:1004A0000C94470280E00C944A020E946C150C9454
:1004B0004A020E946C1590918801981721F0809350
:1004C00088010C944A020895CF93DF93CDB7DEB72D
:1004D0002B970FB6F894DEBF0FBECDBF4F83588762
:1004E00069877A878B8761110E94FB0A1E821D82B1
:1004F00085E0FE013796DE01119601900D928A95F6
:10050000E1F78C819D81892B89F449815A816B8126
:100510007C818D819E810E941C0A2B960FB6F894D7
:10052000DEBF0FBECDBFDF91CF91089589819A8143
:1005300089238F3F51F3CE0101960E94C70181119B
:10054000E4CFEBCFFC01808191810C94BA07CF936B
:10055000C82F882309F447C08CEF8C0F813AA0F490
:100560006C2F80910201909103010E94E015882375
:1005700029F08C2F0E94BD0A0E941B0B8C2F0E9419
:10058000B60ACF910C941B0B80E28C0F883048F494
:10059000C77081E001C0880FCA95EAF70E94DE0AA1
:1005A000F0CFEBE5EC0FE33040F4F0E0E95BFE4F19
:1005B000808190E0CF910C94A015E8E5EC0FE73135
:1005C00050F4F0E0EE0FFF1FE75EFE4F8081918157
:1005D000CF910C94B615CD3E30F08C2F0E94351182
:1005E000CF910C940812CF910895882361F19CEF6C
:1005F000980F913A20F40E94BD0A0C941B0B90E2D4
:10060000980F983050F4877091E001C0990F8A9547
:10061000EAF7892F0E94E40AF0CF9BE5980F933008
:1006200020F490E080E00C94A01598E5980F9731A5
:1006300020F490E080E00C94B6158D3E20F00E94EE
:100640008F110C94081208951F93CF93DF93182FE6
:10065000EB010E94A702209731F4812FDF91CF9107
:100660001F910C94F5028FE99FE00197F1F700C00C
:1006700000002197F0CF70E060E0893311F460E56D
:1006800070E00C942403882321F00E94DE0A0C946D
:100690001B0B0895882321F00E94E40A0C941B0B85
:1006A0000895BF92CF92DF92EF92FF920F931F9324
:1006B000CF93DF936C01D62FC72FFC011281F580F9
:1006C000F2949FE0F9220E94D40AE82E8823B9F020
:1006D000E12E1123A1F08C2F807F803421F080E265
:1006E0008D0F8830D0F08091720282FD16C082E0BA
:1006F0000E947C0B0E94D40A91E0E82EE926BC2ED1
:10070000B2948FE0B822FBE0FB1508F468C0EB2D33
:10071000F0E0E652F14E0C946F1EE12CF0CF0C2F5E
:100720000F70C07F11F00295007F112399F0002314
:1007300059F080E28D0F883010F0D11107C0802F62
:100740000E94DE0A0E941B0B8D2F41C0802F0E9449
:10075000EE0AF8CF8D2F0E94F502002309F43FC066
:1007600080E28D0F883010F0D11104C0802F0E94DC
:10077000E40A03C0802F0E94F40A0E941B0B2FC0C2
:100780000C2F0F70C07FC03211F00295007FDD2367
:1007900081F0D13009F469C0112309F473C0FF203E
:1007A00009F469C0F601858180FFCECF8F70858303
:1007B00062C08091720282FF38C0112359F0002379
:1007C00029F0802F0E94DE0A0E941B0B80E00E940D
:1007D000A70205C080E00E94F5020111C7CFEB2DF2
:1007E000E850FF0B349720F40E946C150E944A02D7
:1007F000EE2009F472C10E94D00A80FD6EC1F6019C
:1008000012820E94CA0A0E948506C6010E948E05B5
:100810000E94CA0ADF91CF911F910F91FF90EF9034
:10082000DF90CF90BF900C94A606112389F0F110B1
:1008300006C00E94FE0A802B0E944303D0CF21E015
:10084000F212F7CF0E94FE0A802B0E94040BC7CF42
:10085000F11006C00E94110B802F0E944A03BFCFE7
:1008600031E0F31609F4BBCFF5CF112331F085E069
:100870008F1508F4B4CF802FDFCF94E09F1508F4D4
:10088000AECFEACFFF2041F3D93349F4FFEF27EE93
:1008900033E0F15020403040E1F700C000008D2FE0
:1008A0000E94F5029CCF8C2F86958695837069F007
:1008B000813009F094CF8D2F9C2F9370111102C0BD
:1008C00090E080E00E94B6158ACF8D2F9C2F937008
:1008D000111102C090E080E00E94A01580CF8D2F02
:1008E000112329F00E9435110E94081278CF0E942E
:1008F0008F11FACF8C2F837009F041C011116FCF87
:100900004D2F429546954770440F440F0D2F0F70A1
:1009100010E030E020E0042E04C0000F111F221F61
:10092000331F0A94D2F760E070E0CB01D4FF0FC010
:100930006FE070E080E090E004C0660F771F881FD2
:10094000991F4A95D2F76095709580959095C695B8
:10095000C695C370602B712B822B932BC23049F04C
:1009600058F4C13019F00E94370639CF0E9425068D
:1009700036CF0E94490633CF0E94230630CF86959A
:10098000112311F08C2F8170882309F428CF4D2F6B
:10099000429546954770440F440F0D2F0F7010E09D
:1009A00030E020E0042E04C0000F111F221F331F6F
:1009B0000A94D2F760E070E0CB01D4FF0FC06FE083
:1009C00070E080E090E004C0660F771F881F991FD9
:1009D0004A95D2F76095709580959095C695C69585
:1009E000C370602B712B822B932BC23049F058F4CB
:1009F000C13019F00E94FC06F2CE0E94EA06EFCE4A
:100A00000E940E07ECCE0E945F06E9CECF70112344
:100A100029F08C2F0E9485068D2F0ECF8D2F0E94DE
:100A20004A038C2F0E94A606DACED23F51F160F421
:100A3000D03FB9F0D13F81F0112309F449C0F11042
:100A400083CE8C2F8F7121C0D33F11F1D43FA1F7FA
:100A50008091720282FF26C08C2F8F71112311F3B7
:100A600014C0112349F084E08F1508F4B8CE8C2F00
:100A70008F710E94C906B3CE95E09F1508F4AFCEE2
:100A8000F6CF8C2F8F711111CDCF0E948506A7CE86
:100A9000112329F08C2F8F710E947006A0CE0E9426
:100AA0006B069DCE112349F0CF718C2F0E948506D5
:100AB00063E08C2F0E94610B92CE81E00E947C0B40
:100AC000E1E0EF1508F08BCE82E00E947C0B87CE30
:100AD000F110DACE8C2F8F71A5CFDF91CF911F91BE
:100AE0000F91FF90EF90DF90CF90BF9008950F93FC
:100AF0001F93CF93DF93EC01688179818A810E94F3
:100B0000C4078C010E9420070E942206B801CE0172
:100B1000DF91CF911F910F910C945103CF93DF93ED
:100B2000EC018B819C81892B29F088819981892313
:100B30008F3F59F4DF91CF910895CE010E94770540
:100B4000CE01DF91CF910C94C901CE010E94E80142
:100B50008111F3CF0E94D40A882361F38A8188230C
:100B600049F38091720282FDE5CF82E0DF91CF915F
:100B70000C947C0B90E080E00E94A01590E080E057
:100B80000E94B6150E94FB0A0E941B0B0E942F13A5
:100B90000C9408120E94C40A0C94BA050E94EB0A35
:100BA0000C94CA0592959F70963091F058F4925F1C
:100BB0009F70923058F4803F19F030F4883E30F442
:100BC00081E008959A5FF4CF843FD1F380E00895E7
:100BD000883EB0F3813FD1F7F3CFFC018081918152
:100BE0000E94BA070C94D205CF93DF9300D000D0B7
:100BF0000F92CDB7DEB70F900F900F900F900F9020
:100C0000DF91CF910895CF93DF9300D000D000D033
:100C1000CDB7DEB726960FB6F894DEBF0FBECDBFB8
:100C2000DF91CF91089508950C9413060E94140645
:100C30006093A2017093A3018093A4019093A501F6
:100C40000C94BA0508950C9416060F931F93009107
:100C5000A2011091A3012091A4013091A501602B64
:100C6000712B822B932B1F910F910C9416060F93CF
:100C70001F930091A2011091A3012091A401309132
:100C8000A50160237123822393231F910F910C945C
:100C900016060F931F930091A2011091A3012091BA
:100CA000A4013091A50160277127822793271F9106
:100CB0000F910C9416060C9413060C945B060E947C
:100CC0005D0660939E0170939F018093A0019093B5
:100CD000A1010C94BA0560E070E0CB010C945F06B2
:100CE0000F931F9341E050E060E070E08A019B01A8
:100CF00004C0000F111F221F331F8A95D2F7C901AC
:100D0000B8011F910F910C945F060F931F9341E060
:100D100050E060E070E004C0440F551F661F771F6D
:100D20008A95D2F780919E0190919F01A091A00198
:100D3000B091A1018A019B01082B192B2A2B3B2B77
:100D4000C901B8011F910F910C945F060F931F9377
:100D500041E050E060E070E004C0440F551F661FA2
:100D6000771F8A95D2F7CB01BA016095709580956F
:100D7000909500919E0110919F012091A0013091CA
:100D8000A10160237123822393231F910F910C945F
:100D90005F060F931F9341E050E060E070E004C0F5
:100DA000440F551F661F771F8A95D2F780919E01C9
:100DB00090919F01A091A001B091A1018A019B0196
:100DC000082719272A273B27C901B8011F910F912E
:100DD0000C945F060F931F9300919E0110919F0149
:100DE0002091A0013091A101602B712B822B932BBC
:100DF0001F910F910C945F060F931F9300919E011A
:100E000010919F012091A0013091A10160237123D5
:100E1000822393231F910F910C945F060F931F93CE
:100E200000919E0110919F012091A0013091A1019C
:100E300060277127822793271F910F910C945F06DB
:100E40000895E92FEE0FEE0F9E0F890F982F9770E0
:100E500041E001C0440F9A95EAF7869586958695FC
:100E600095E0899FF0011124E657FE4F30E020E025
:100E700070E05191DF011197CB01022E02C09695CF
:100E800087950A94E2F781708195852784238527C9
:100E90008C932F5F3F4F2530310559F70895E92F87
:100EA000EE0FEE0F9E0F890F982F977086958695FF
:100EB000869525E0829FF0011124E657FE4F50E011
:100EC00040E080E0219130E0092E02C03695279560
:100ED0000A94E2F721703327042E01C0220F0A94EE
:100EE000EAF7822B4F5F5F4F4530510559F7089560
:100EF000BF92CF92DF92EF92FF920F931F93CF9307
:100F0000DF938C01C0909E01D0909F01E090A001E2
:100F1000F090A1018091A2019091A301A091A40160
:100F2000B091A501C82AD92AEA2AFB2ACFE1D0E04C
:100F3000BC2ED701C6010C2E04C0B695A795979577
:100F400087950A94D2F780FD0EC0219788F7B12CBF
:100F50008B2DDF91CF911F910F91FF90EF90DF903C
:100F6000CF90BF900895B8018C2F0E94470E019733
:100F700061F3EECFCF93DF93EC010E947807BE01BF
:100F8000DF91CF910C94470E1F93CF93DF93EB012A
:100F900090918901992331F0CB01DF91CF911F917D
:100FA0000C94BA07882379F0CB010E947807182F98
:100FB000682FCE010E942107BE01812FDF91CF91C2
:100FC0001F910C94470ECB010E944F07182FF4CFAE
:100FD0001F93CF93DF93C091A60116E08091A701E4
:100FE0008C1304C0DF91CF911F910895D0E01C9F16
:100FF000F0011D9FF00D1124E855FE4F40815181F5
:1010000062817381848195810E9403062196C77055
:10101000E5CF4091D8015091D9016091DA017091EA
:10102000DB018091DC019091DD010C940306FF92BD
:101030000F931F93CF93DF938091DD01807FD1F4D5
:101040008091DA018823B1F08091A6011091A70167
:101050006091D8017091D901A091DB01B091DC01C0
:10106000062F0723C0910001D091010196E0F92ECF
:10107000181306C0DF91CF911F910F91FF90089533
:1010800090E0109711F00F3F19F401968770F0CFA0
:10109000F89E9001F99E300D1124F901E855FE4F9C
:1010A00041814713F2CF40814613EFCF4281411176
:1010B000ECCF438154814A1B5B0B4C175D0728F72B
:1010C0008091DD018F7080618093DD01F901E3552E
:1010D000FE4F80818F708061808388ED91E00E9457
:1010E0008E05DF91CF911F910F91FF900C94E8072F
:1010F000AF92BF92CF92DF92EF92FF920F931F9326
:10110000CF93DF93CDB7DEB761970FB6F894DEBF0C
:101110000FBECDBF8C0185E0F801DE011D96019068
:101120000D928A95E1F7F801E28088EDC82E81E002
:10113000D82E6091DB017091DC016115710509F415
:101140005FC19091D8012091D901892F82238F3FCF
:1011500009F456C140815181A380B480F090DA0136
:10116000F501E61BF70BBF01E0910001F0910101D1
:10117000FF2009F4F6C08091DD01382F307F6E1713
:101180007F0708F0AFC0311179C0FE2C251323C0B2
:10119000941321C0E1101FC08F7080618093DD0126
:1011A0000E940908C6010E948E058091DD01F801A8
:1011B00085838F2D61960FB6F894DEBF0FBECDBF2D
:1011C000DF91CF911F910F91FF90EF90DF90CF9023
:1011D000BF90AF900895AB2829F0842F85238F3FCF
:1011E00009F027C180E0F82FF170DF2E80FF3CC0AE
:1011F0008091A6012091A70136E0821315C04D878A
:101200005E878D859E850E94BA07292F22952F70B3
:101210002230F0F0243018F59F70F1F0F80195813C
:10122000907FD1F4D12C1EC090E0389FF001399FFF
:10123000F00D1124E855FE4F6181651306C06081F1
:10124000641303C062816E110FC001968770D5CF01
:101250009F7011F0882331F3805E883018F3C80145
:101260000E948E05FD2CA5CFEE2009F4A2CF80911F
:10127000DD0181608093DD01F12C9BCF251306C039
:10128000941304C0F801EE2009F487C0C8010E943D
:10129000ED05882319F1EE2009F18091DD018032FE
:1012A00070F02091D8013091D90138872F831986A9
:1012B000BB86AA868C87CE0107960E948E0586E0A3
:1012C000F801A8EDB1E001900D928A95E1F70E9436
:1012D00017080E940908FF24F3946BCFC8010E94ED
:1012E0008E05F9CF311113C07A2DB98AA88A6E2DD7
:1012F00089890E94F40588ED91E00E948E0586E0C0
:10130000F60111928A95E9F70E940908B5CF2513D5
:101310000FC094130DC0E1100BC0F8018583C80104
:101320000E948E0586E0F60111928A95E9F741CF79
:10133000C8010E94ED05882389F2EE2079F28091A0
:10134000DD01803208F4BBCF2091D8013091D90162
:101350003A8329831B82BD82AC828E83CE010196A3
:10136000ACCF6E177F0708F03EC0FE2CEE2009F4CC
:10137000B5CF25132AC0941328C08091DD0180FDCC
:101380001BC0982F907FC1F0F8018583903F31F00A
:10139000982F907F905F8F70892B8583C8010E9462
:1013A0008E0586E0F801A8EDB1E001900D928A95D6
:1013B000E1F70E940908FDCE86E0F801A8EDB1E052
:1013C00001900D928A95E1F7F4CEC8010E94ED05D7
:1013D000811175CF8091DD0181608093DD01C801AD
:1013E0000E948E05E6CE7A2DB98AA88A6E2D89894B
:1013F0000E94F40586E0F60111928A95E9F7D9CFAB
:10140000EE2009F46BCFC8010E94ED05F82E882369
:1014100009F464CF86E0F801A8EDB1E001900D92E7
:101420008A95E1F788ED91E00E94A2020E941708D8
:10143000C0CF81E08E25D7CE1F93CF93DF93CDB75A
:10144000DEB72C970FB6F894DEBF0FBECDBF4F832B
:10145000588769877A878B879C87CE0107960E9479
:101460007808882369F08A859B85892B39F04F811C
:101470005885842F85238F3F09F071C016E05FC027
:1014800086E0FE013796DE01119601900D928A9555
:10149000E1F78A859B85892B89F38F81988589233C
:1014A0008F3F61F32091A70130E0C9010196877059
:1014B00099274091A6014817190671F40E94CE059C
:1014C0001092A7011092A60186E0E8EDF1E0DF019D
:1014D0001D928A95E9F7D2CF96E0929FD001939F13
:1014E000B00D1124A855BE4FFE01319601900D920A
:1014F0009A95E1F78093A7010E94E807BFCF819FEB
:10150000C001112488559E4F0E9478088823E9F075
:10151000E091A6011E9FF0011124E855FE4F408185
:10152000518162817381848195810E94030680913B
:10153000A60190E00196877099278093A60180917B
:10154000A6019091A7018913DACF2C960FB6F894D3
:10155000DEBF0FBECDBFDF91CF911F91089569858A
:101560007A858B859C850E94030688CF682F8091A1
:101570000201909103010C946016682F8091020182
:10158000909103010C946B168091020190910301DC
:101590000C9476168091FE01859585958595089524
:1015A0008091FE01877008959091FE01977081E00F
:1015B00009F480E00895809121020895909121021C
:1015C000892B809321020895809590912102982380
:1015D0009093210208951092210208959091200283
:1015E000892B809320020895809590912002982362
:1015F0009093200208951092200208958091FF0197
:10160000089508950C94010B9091720292FD08C008
:101610009091FF01981721F08093FF010C94020B29
:1016200008958091FF01882329F01092FF0180E046
:101630000C94020B0895CF93DF93E0910201F09197
:101640000301809121028083E0910201F091030166
:10165000808190912002892B80839091FF019923B2
:1016600081F0E0910201F09103018081892B808358
:1016700080910201909103010E94CC1581110E947A
:10168000110BC0910201D091030140E250E06EEDD8
:1016900071E0CE010E94891E892B69F080E2FE0173
:1016A000AEEDB1E001900D928A95E1F7CE01DF91A8
:1016B000CF910C947815DF91CF91089508950C94F3
:1016C0005E0B9091720292FD10C098E0899F90018C
:1016D0001124622B6093FE010E9485068091FE0119
:1016E0008595859585950C945F0B0C9485061092D5
:1016F000FE0180E00C945F0B9091FE0180958923A0
:101700008093FE01282F277091F4282F082E000CBB
:10171000330B9217130659F09091720292FD07C095
:101720008595859585950E94A6060C94770B08955E
:101730009091720292FB222720F9281769F080FB12
:1017400092F99093720280917102909172020E94BC
:10175000E30B82E00C947C0B08958091720282FB73
:10176000882780F991E089270C94980B81E00C94EC
:10177000980B80E00C94980B6FEF7FEF90E080E087
:101780000C94C21E90E080E00E949E1E21E0893EE3
:101790009E4F09F020E0822F089582E090E00C94A3
:1017A000961E83E090E00C94961ECF9384E090E028
:1017B0000E94961EC82F82E290E00E94961E982FEB
:1017C0008C2FCF910895CF93C92F682F84E090E09C
:1017D0000E94A41E6C2F82E290E0CF910C94A41E74
:1017E000AB01BC018FE090E00C94B61EAB01BC01D4
:1017F00083E190E00C94B61E60E070E0CB010C94A5
:10180000F60B60E070E0CB010E94F00B0C94FC0B37
:1018100069EE7EEF90E080E00E94C21E60E082E010
:1018200090E00E94A41E60E083E090E00E94A41E6D
:101830001092A2011092A3011092A4011092A5018E
:1018400060E084E090E00E94A41E60E082E290E00C
:101850000E94A41E60E085E090E00E94A41E60E06B
:1018600086E090E00E94A41E6FEF87E090E00E9467
:10187000A41E40E050E0BA0188E090E00E94B61E4D
:1018800060E08DE090E00E94A41E40E050E0BA01CC
:1018900088E190E00E94B61E60E087E190E00E943F
:1018A000A41E40E050E0BA018CE190E00E94B61E18
:1018B00070E060E080E290E00E94C21E40E050E0F4
:1018C000BA0188E190E00E94B61E0C94010C0C94C1
:1018D000080C682F8EE090E00C94A41E0E942A173A
:1018E00060932B0270932C0280932D0290932E0212
:1018F00060932702709328028093290290932A0212
:10190000089585B7806885BF85B7806885BF0895CD
:10191000089508950C94890C08950C948C0C0E94E1
:10192000810C85E29FE00E9462150E94880C0C9455
:101930008A0C81E008950C94990C089508950E94F2
:101940009D0C0C949E0C0E94420F0C9449020E9424
:1019500015170E9412100E94A30C0C948D0C9F92DC
:10196000AF92BF92CF92DF92EF92FF920F931F93AD
:10197000CF93DF93CDB7DEB72A970FB6F894DEBFCB
:101980000FBECDBF0E942710C82E81110E946E0C81
:1019900082E2A82E82E0B82E10E000E0902E802F88
:1019A0000E946C0FE82EF501F1905F01F81609F422
:1019B00045C080912F0281FD0E94720F8F2D8E25D0
:1019C000D12CFF24F394982F9F2199F10E949B0C16
:1019D000882399F0DE829F82EF2081E009F480E085
:1019E00088870E941E178160782F9A8789874E8189
:1019F0005F8168858A850E946402F801EE5DFD4F73
:101A00008081F826F08281E0C11001C080E02A9632
:101A10000FB6F894DEBF0FBECDBFDF91CF911F91FF
:101A20000F91FF90EF90DF90CF90BF90AF909F907D
:101A30000895D394FF0CF5E0DF12C5CF0F5F1F4F61
:101A40000530110509F0AACF8FEF89838A831B82A5
:101A50000E941E178160782F9D838C8349815A8153
:101A60006B818D810E946402CECF0E94AF0C0E94D8
:101A700023120C945902CF93DF930E944B0EEC017A
:101A8000811521E5920708F042C0811530E59307E2
:101A900008F09DC0883E910530F5803E910508F024
:101AA00092C0883A910588F4853A910508F084C07F
:101AB0008130910509F487C0009709F484C0049728
:101AC00008F081C0D0E0C0E07EC08F3B9105D0F728
:101AD000C85AD0E0CC0FDD1FC65BDE4F0990D8811D
:101AE000C02DD46470C08115904250F4C11581E0BE
:101AF000D80708F068C0CD3ED10520F3D06563C09B
:101B0000C11590E4D907F0F2DF70D06A5CC081158E
:101B100025E5920700F5811534E5930708F08BC0A1
:101B2000811543E5940708F073C0C11582E5D80715
:101B300008F469C0CE018370992721E030E002C02B
:101B4000220F331F8A95E2F7C695C69580E2C89F9B
:101B5000E001112454C0C11599E5D907A8F4C115B5
:101B600028E5D20708F06CC0C11536E5D30708F0A8
:101B7000A9CF8C2F0E94E20EC82FD0E0DC2FCC27FB
:101B8000CC27DF71D0621FC0C1154AE5D40708F425
:101B90005CC0CE0190568115904208F093CF8D2FF6
:101BA0008F710E94E20E90E0982F882788279F71FE
:101BB0009C012C2BE901E6CFC55AD0E0C858DE4F76
:101BC000C881D0E0D064CE01DF91CF910895E4E0E8
:101BD00096958795EA95E1F783702C2F26952695A3
:101BE000237040E2249F90011124382B8C2F8370A6
:101BF000C1E0D0E002C0CC0FDD1F8A95E2F7C22B16
:101C0000D32BDC68E0CFDC2FCC27C16FD06ADBCFD1
:101C10008370992721E030E002C0220F331F8A959C
:101C2000E2F7C695C69590E2C99FE0011124C22B48
:101C3000D32BDA68C8CFD82FCC27C46FD06AC3CFD4
:101C4000DC2FCC27C06FD06ABECF8C2F8F700E9444
:101C5000E20E34E0D695C7953A95E1F7CF709C2F08
:101C6000EC01D069B0CF972F70E025E0929F600D16
:101C7000711D1124FB0199E1899FE00DF11D1124D3
:101C8000EE0FFF1FE455FF4F8591949108950E9438
:101C9000330E0C943B0D82389105B1F1B0F48133D1
:101CA000910509F475C048F48932910509F469C0B9
:101CB0008A32910509F473C008958533910509F4BA
:101CC00059C08933910501F10895833E9105A9F129
:101CD00038F4803E9105F9F0823E910549F108956E
:101CE000863E9105A9F1873E9105C9F1843E910593
:101CF00019F52091720221FF1FC08091710284FDAD
:101D000014C087EE90E00895209171022370A1F035
:101D100080EE90E008952091710220FD47C030913F
:101D2000720230FF09C024FF44C090E080E004C08C
:101D30002091710222FDF7CF08952091710222FDBA
:101D40003BC03091720230FDE3CF24FFF5CFEDCFE1
:101D50002091710223FFF0CF24FDE7CFD2CF209155
:101D6000710223FD2CC03091720231FFEECF84EE60
:101D700090E008952091710225FFDECF89E290E086
:101D800008952091710225FFD7CF85E390E0089553
:101D90002091710226FFD0CF8AE290E00895209131
:101DA000710226FFC9CF81E390E0089589E390E0B6
:101DB000089583EE90E0089582EE90E0089586EE17
:101DC00090E008959091710292FF06C0282F28712B
:101DD0002830F9F4877F846093FF06C0282F28718C
:101DE0002831F1F4877E84612091720220FF06C0C1
:101DF000382F38713830D9F4877F816021FF06C0D1
:101E0000282F28712831D1F4877E816194FD877E47
:101E10000895282F24712430F9F68B7F8860DCCF59
:101E2000282F2471243101F78B7E8861DDCF382F74
:101E30003171313019F78E7F8860E0CF282F217102
:101E4000213121F78E7E8861E1CF80E008950C94E6
:101E5000BC0B0E9427102FEF86E791E021508040B5
:101E60009040E1F700C000000E94271080E00E942F
:101E70006C0F80FF04C00E94270F0C94691708950F
:101E80000C94290F0E94C20B811102C00E94670CA2
:101E90000E94CD0B80932F020E94D50B909372026B
:101EA000809371020E94400F0E94D10B682F70E056
:101EB00090E080E00E94230660919E0170919F0156
:101EC0008091A0019091A1010C945D0608950C945D
:101ED000660F08950C94690FE82FF0E0E858FD4F65
:101EE00080810895089580EA8A95F1F7089500C0E9
:101EF00008950C94730FF894E82FE295EF70F0E0DA
:101F000031A1282F2F7081E090E001C0880F2A9521
:101F1000EAF7982F9095932391A392A1892B82A3FE
:101F200078940895CF93DF93C0E8D1E089918F3FF3
:101F300011F00E947B0F81E0C538D807B9F7CBE7D5
:101F4000D1E089918F3F11F00E947B0F81E0C03872
:101F5000D807B9F7DF91CF910895CF92DF92EF9232
:101F6000FF920F931F93CF93DF93EC01D62E062F92
:101F700010E0C80180589E4F7C01FC0180818F3F9A
:101F800009F445C0F894E82FE295EF70F0E091A1D4
:101F90008F7021E030E001C0220F8A95EAF7892F87
:101FA000822B81A382A12095282322A378940E94CA
:101FB000770FEBE7F1E040E851E031E0C12C2191EF
:101FC0002F3F71F1A22FA295AF70B0E090968C9147
:101FD00090E02F7002C0959587952A95E2F780FDD5
:101FE0001FC0832FC82A330F4E175F0741F7F70131
:101FF00080818F3F11F00E947B0F61E0C11001C012
:1020000060E08D2D0E94790FC00FD11FC882DF9133
:10201000CF911F910F91FF90EF90DF90CF90089597
:1020200080E0E0CF0E94920F85E0E8E7F2E0DF0178
:10203000982F1D929A95E9F7E3E7F2E0DF011D92F0
:102040008A95E9F785E00E946E100C94D401FF9206
:102050000F931F93CF93DF9300D000D00F92CDB793
:10206000DEB78E010F5F1F4F85E0F80111928A9550
:10207000E9F7F12C6F2DC8010E94AD0FF394F5E044
:10208000FF12F8CF45E050E0B80183E792E00E94EC
:10209000891EFF24F394009709F4F12C892B41F059
:1020A00085E0F801A3E7B2E001900D928A95E1F78F
:1020B0002F2D45E068E772E083E792E00E946F1001
:1020C0000E94D6018F2D0F900F900F900F900F90C0
:1020D000DF91CF911F910F91FF9008950895FF9286
:1020E0000F931F93CF93DF93F82E092F162FD72F1F
:1020F000C42F222349F081E0809332020E941E17F0
:102100009093310280933002809132028823A1F0B3
:1021100080913002909131020E943617059760F04D
:10212000EF2DF02FA12FBD2FCE0FDF2FD11DEC17DC
:10213000FD0741F410923202DF91CF911F910F9170
:10214000FF90089581918D93F2CF0E942F190E94E4
:10215000A70C0C943B190E943F190E94350D0C945A
:1021600059190E94BE160E9416190E948F0C0E94D7
:10217000A5100E94AB100E949F0CFBCF80913902EA
:1021800080FF0DC06091090170E0660F771F603815
:10219000710570F56115710569F1862F089581FF4C
:1021A00007C06091090184E0689FB0011124EFCF5E
:1021B0006091090182FD0AC0809138028823A9F04C
:1021C0002091080160910901821710F088E0ECCF9E
:1021D000869FC001112433E0880F991F3A95E1F7DB
:1021E000622F70E00E945B1ED2CF68E070E0D5CF16
:1021F0008FE7089581E008958091390280FF0CC037
:102200006091050170E07595679575956795611505
:10221000710549F1862F089581FF06C0609105017F
:1022200070E075956795F3CF6091050182FD0BC055
:10223000909137029923A1F06091040180910501EA
:10224000961738F0682F70E06038710500F38FE75B
:102250000895899FC001112470E00E945B1EF4CF95
:1022600061E070E0D7CF81E008958D3E31F40E94A7
:10227000BE10819580933D0208958E3E19F40E9410
:10228000BE10F8CF8F3E31F40E94BE10819580932E
:102290003C020895803F19F40E94BE10F8CF893F98
:1022A00029F40E94FC1080933E0208958A3F21F495
:1022B0000E94FC108195F7CF8B3F31F40E94FC10F7
:1022C000819580933F0208958C3F19F40E94FC1081
:1022D000F8CF9FE0980F983070F4815F990B21E060
:1022E00030E001C0220F8A95EAF780913B02822BF1
:1022F00080933B0208958D3F31F4809139028160D3
:102300008093390208958E3F21F4809139028260D2
:10231000F7CF8F3FB9F7809139028460F1CF4091B8
:102320003C028D3E59F480913D0287FF0DC0109212
:102330003D0241110BC01092380208C08E3E81F45C
:1023400080913D0218169CF3442381F080913E0257
:1023500090913F02892B09F05AC0109237020895DC
:102360008F3E49F447FFF0CF10923C0280913D022E
:102370008111ECCFE0CF803F19F41416ACF3E4CF19
:1023800090913E02893F29F41916F4F610923E020C
:10239000DBCF8A3F19F497FFD7CFF8CF90913F0258
:1023A0008B3F29F497FFD0CF10923F02CDCF8C3FC7
:1023B00019F41916CCF3C8CF9FE0980F983090F419
:1023C000815F990B21E030E0B90102C0660F771FF1
:1023D0008A95E2F7CB01809590913B028923809307
:1023E0003B02B2CF8D3F31F4809139028E7F8093D2
:1023F0003902AACF8E3F21F4809139028D7FF7CF29
:102400008F3F09F0A1CF809139028B7FF0CF0895E3
:102410000E941E179C0190913C0280913D02982BD6
:1024200021F0309336022093350290913E02809144
:102430003F02982B21F030933402209333028AE339
:1024400092E00C949215EF92FF920F931F93CF930B
:10245000DF9300D000D000D0CDB7DEB786E0EAE34E
:10246000F2E0DE01119601900D928A95E1F7E0907D
:102470003C02F0903D0200913E0210913F0210920A
:102480003C0210923D0210923E0210923F028E2DAD
:102490008F2991F080913502909136020E94361773
:1024A000AC0190913802992309F43FC080910A0150
:1024B0008417150608F447C0802F812B91F0809176
:1024C0003302909134020E943617AC01909137028A
:1024D000992309F477C0809106018417150608F442
:1024E0007FC080913C0290913D02892B90913E02E9
:1024F000892B90913F02892B11F00E94081286E0EF
:10250000FE013196AAE3B2E001900D928A95E1F7BF
:1025100026960FB6F894DEBF0FBECDBFDF91CF91E8
:102520001F910F91FF90EF90089520910B018AE089
:10253000289F900111242417350708F0BDCF9F5F15
:102540009093380202C09F3FD1F7EE2059F00E94CD
:10255000BE109FEF1E140CF491E0899F802D112472
:1025600080933C02FF2059F00E94BE109FEF1F1481
:102570000CF491E0899F802D112480933D023091CD
:102580003C02332309F498CF20913D02222309F421
:1025900093CF45EB3403C0011124992359F0909354
:1025A0003C0245EB240390011124332339F030938E
:1025B0003D0282CF81E080933C02F3CF81E08093A3
:1025C0003D027ACF209107018AE0289F90011124D3
:1025D0002417350708F085CF9F5F9093370202C01C
:1025E0009F3FD1F7002359F00E94FC109FEF101677
:1025F0000CF491E0899F802D112480933E021123D9
:1026000059F00E94FC109FEF11160CF491E0899F85
:10261000802D112480933F0230913E02332309F430
:1026200060CF20913F02222309F45BCF45EB3403B6
:10263000C0011124992359F090933E0245EB2403E5
:1026400090011124332339F030933F024ACF81E0C7
:1026500080933E02F3CF81E080933F0242CF86E039
:10266000EAE3F2E0DF011D928A95E9F71092380261
:1026700010923702109239020895CF93DF93EC0144
:10268000FB018281882309F433C1C430FDE5DF07F3
:10269000C0F5CB3F9CE5D90730F49E0122503C4564
:1026A00024313105B0F50E94D50B909372028093CE
:1026B0007102C1318CE5D80709F4EEC008F069C099
:1026C000C930ECE5DE0709F4D5C0C8F5C5308CE5A6
:1026D000D80709F4C7C000F5C330ECE5DE0709F4FC
:1026E000B9C008F0BBC0C230DC4509F4ADC0809170
:1026F0007102909172020E94E30B0E94CE0580E06D
:1027000008C0C236EDE5DE0771F2C63AFDE5DF0727
:1027100051F2DF91CF910895809171028062C730AC
:102720009CE5D90709F493C0809171028061C8309B
:10273000DC4508F48CC080917102806488C080916F
:1027400071028B7FCD30FCE5DF0709F480C098F47F
:10275000809171028E7FCB309CE5D90709F477C058
:10276000809171028C60CC30DC4508F470C080919F
:1027700071028D7F6CC0809171028F7ECF30FCE53D
:10278000DF0709F464C008F47BC0809171028F7D7B
:102790005EC0CE3F9CE5D90709F47AC050F5C5313B
:1027A000FCE5DF0709F486C098F480917102837F0D
:1027B000C3319CE5D90709F44AC008F471C00E94EE
:1027C000CE0590917102892F97FB87F980583FC001
:1027D000CC3FFCE5DF0709F449C008F055C0809103
:1027E00072028160CB3FDC4509F081CF8093720299
:1027F0007ECFC230EDE5DE0709F468C0A8F4C1154C
:102800008DE5D80709F452C0809172028360C1300F
:10281000DD4560F380917202982F909591708E7FC4
:10282000892B90FB81F9E2CFC236EDE5DE0709F492
:1028300051C0C63AFDE5DF0709F453C0C330DD459A
:1028400009F055CF80E043C0809171028160809390
:1028500071024DCF809171028260F9CF8091710237
:102860008460F5CF809171028860F1CF809172020F
:102870008260BCCF0E94CE05809171028068E7CF54
:1028800080917102877FE3CF809172028E7FAECFFD
:10289000809172028D7FAACF809171028F7BD7CFFA
:1028A0000E94CE05809171028F77D1CF8091720204
:1028B0008C7F9CCF8091710282FB992790F921E057
:1028C000922790FB82F990FB83F9C1CF81E00E94AF
:1028D000690C0DCF90917102892F8F7E94FF8061DA
:1028E000B6CF90917102892F8E7F90FF8160AFCF1C
:1028F00081E00FCFCF93DF93EB0186319C4511F53B
:102900000E94DB0A9A81992399F08A7A91E009F46E
:1029100090E090934002811109C089E20E94B60ABA
:102920000E941B0B80E0DF91CF91089585E3F6CFE5
:1029300080914002811104C089E20E94BD0AF0CF5B
:1029400085E3FBCF81E0EFCF0F931F93CF93DF930E
:10295000C42FD22FFC0182818823C9F04093430207
:102960000E941E17909342028093410280E28C0FD6
:10297000883008F050C0C77081E001C0880FCA9548
:10298000EAF7DF91CF911F910F910C9443031091BF
:102990004302141335C080914102909142020E947B
:1029A0003617883C910560F5C0E2CD0F1D17B9F0D0
:1029B00080E2810F883040F4177081E001C0880FF9
:1029C0001A95EAF70E944A03C83048F481E09D2F27
:1029D000977001C0880F9A95EAF70E944303802FF1
:1029E0000E943B03C830B8F4D77081E001C0880F63
:1029F000DA95EAF7DF91CF911F910F910C944A037A
:102A000080E28C0F883038F4C77081E001C0880FF5
:102A1000CA95EAF7EFCFDF91CF911F910F910895FB
:102A20000F939C01CB01243F4CE5340759F1A8F4E6
:102A3000293DFCE53F0701F12A3D4CE53407D1F182
:102A4000283D3C4591F406E221EE41EE68ED7CE53F
:102A50000E94A41480E00F910895263FFCE53F07F3
:102A6000E9F0B0F0273F3C45F9F0FC018281882372
:102A700039F110924302EFCF07E225EE45EE69ED02
:102A80007CE5E6CF06E221EE40EE64EF7CE5E0CFA8
:102A900007E225EE44EE65EF7CE5DACF06E221EEB3
:102AA00042EE66EF7CE5D4CF07E225EE46EE67EF17
:102AB0007CE5CECF08E221E045EE6AED7CE5C8CFAB
:102AC00081E0C9CF90938701809386010895909308
:102AD0004902809348020895E0914802F09149022A
:102AE000309721F00190F081E02D099480E0089565
:102AF000E0914802F0914902309799F02091180135
:102B0000222359F02091710227FF07C0DC012C918C
:102B100011962C93119726E02C930280F381E02DDF
:102B200009940895E0914802F0914902309739F0F4
:102B300022E0DC012C930480F581E02D09940895B6
:102B400020914602309147022817390771F090937F
:102B5000470280934602E0914802F0914902309783
:102B600021F00680F781E02D099408952091440218
:102B7000309145022817390771F0909345028093F0
:102B80004402E0914802F0914902309721F000841C
:102B9000F185E02D09940895FC0132968091180189
:102BA000882321F0809171029EE187FF96E080E00A
:102BB000915008F4089521912223D1F38F5FF8CF2B
:102BC000662301F1209118012223F1F02091710276
:102BD00027FF1AC0462F4695469546954E3190F4EC
:102BE000677021E030E002C0220F331F6A95E2F7E0
:102BF000840F911DFC01828190E02823392381E01C
:102C0000232B69F480E00895FC0132960896219107
:102C1000261721F0E817F907D1F7F4CF81E00895DE
:102C20009C01FC0132969FEF80E04191461751F0E4
:102C30009F3F19F4411101C0982F8F5F8630A9F78B
:102C40009F3F09F40895290F311D97FD3A95F90129
:102C500062830895FC01329608962191261303C0E1
:102C6000DF0111971C92E817F907B9F70895E62FCD
:102C7000E695E695E695EE3168F4E80FF92FF11D3B
:102C8000677021E030E001C0220F6A95EAF7828187
:102C9000822B82830895E62FE695E695E695EE3140
:102CA00070F4E80FF92FF11D677021E030E001C0EA
:102CB000220F6A95EAF720958281282322830895BE
:102CC00020911801222329F02091710227FD0C94F4
:102CD00037160C94101620911801222329F0209108
:102CE000710227FD0C944B160C942A16FC013296A7
:102CF00080911801882351F08091710287FF06C0EE
:102D00008EE1DF011D928A95E9F7089586E0F9CFFB
:102D100008950C948816811105C081E080934A02C1
:102D20000C94891682E0FACF83E080934A020C94D7
:102D300089160C948B1681E080934A020C948916B4
:102D40000C949B16089508950C94A3160895089565
:102D50000C94A216CF930E94A6160E9427100E94E0
:102D6000A716C0E08C2F0E946C0F811105C0CF5FA9
:102D7000C530C1F7CF91089581E0FCCF08951F922F
:102D80001FB61F9211248F939F93AF93BF9380918F
:102D90004B02811113C080917D0290917E02A0911F
:102DA0007F02B09180024196A11DB11D80937D02EA
:102DB00090937E02A0937F02B0938002BF91AF9167
:102DC0009F918F911F901FBE1F9018958091850233
:102DD000843031F10E943A0210924B0288E190E077
:102DE00020E40FB6F894A895809360000FBE20935E
:102DF000600083B7817F846083BF83B7816083BFB6
:102E00007894889583B78E7F83BF0FB6F894A89582
:102E100080916000886180936000109260000FBE16
:102E200008950E94CE050C943E0282E084BD93E09A
:102E300095BD9AEF97BD80936E0008952FB7F894D3
:102E400080917D0290917E02A0917F02B0918002DC
:102E50002FBF08952FB7F89460917D0270917E0284
:102E600080917F02909180022FBF08959C014FB7FF
:102E7000F89480917D0290917E02A0917F02B091A2
:102E800080024FBF821B930B089578941F921FB648
:102E90001F9211248F939F93AF93BF9380917D02D4
:102EA00090917E02A0917F02B09180020196A11DB7
:102EB000B11D80937D0290937E02A0937F02B09318
:102EC0008002BF91AF919F918F911F901FBE1F9065
:102ED000189581E08093E00080E28093D800109202
:102EE000C9008FE19EE40197F1F700C0000087E080
:102EF00090EBDC0180938E0290938F02A09390025E
:102F0000B093910288E19CE00FB6F894A895809365
:102F100060000FBE90936000FFCF80916F02089514
:102F200008959C0182E08093E9009FEF8091E80082
:102F3000915085FD06C085ED8A95F1F7000091114D
:102F4000F5CF8091E80085FF0CC050E040E066E0DE
:102F500070E0C9010E94CA198091E8008E778093C1
:102F6000E8000895CF93DF93EC0180911801882346
:102F7000B1F18091710287FF32C060E282E08093FC
:102F8000E9008FEF9091E800815095FD06C095ED26
:102F90009A95F1F700008111F5CF8091E80085FF47
:102FA0001BC08091180170E050E040E0811104C026
:102FB00050E040E068E070E0CE010E94CA198091C4
:102FC000E8008E778093E80080E2FE01AFE4B2E093
:102FD00001900D928A95E1F7DF91CF91089568E015
:102FE00081E0CDCF80934C0270934E0260934D02EE
:102FF00080918502843001F582E08093E9008FEFB3
:103000009091E800815095FD06C095ED9A95F1F7F5
:1030100000008111F5CF8091E80085FF0DC050E0E0
:1030200040E063E070E08CE492E00E94CA19809175
:10303000E8008E778093E8000895BC0184E00C944A
:10304000F217BC0183E00C94F21780918402811185
:1030500009C00E945A1B0E94B71B8091E200846045
:103060008093E20008951092840208950C949B16B8
:103070006091810281E0611101C080E00C9494169E
:103080009091850281E0943009F080E060918102A6
:103090000C94991642E061EC81E00E94D61A42E25B
:1030A00061EC82E00E94D61A9091850281E0943012
:1030B00009F080E0609181020C948B168091870268
:1030C000833009F460C030F48130C9F1823009F4F2
:1030D0009CC008958A3009F488C08B3009F46EC012
:1030E000893009F04FC080918602813209F04AC0D0
:1030F00080918A0290918B02029708F043C08091E0
:10310000E800877F8093E8008091E80082FF36C066
:103110009091F3008091F200029731F48091F100D8
:10312000813011F0863021F48091F10080936F029C
:103130008091E8008B778093E8000C940A1B8091C3
:103140008602813AF9F48091E800877F8093E80055
:1031500080918A0290918B02892B61F460E28FE466
:1031600092E070E00E94191A8091E8008B778093BA
:10317000E800089560E090E080E0F3CF8091850260
:103180008111C2CF089580918602813AD9F780914A
:103190008A0290918B02892BA9F78091E800877FA2
:1031A0008093E8008091E80080FFFCCF80911801B7
:1031B0008093F1008091E8008E77BDCF80918602E8
:1031C000813201F780918A0290918B02892BD1F68E
:1031D0008091E800877F8093E8000E940A1B80911D
:1031E0008802809318010C94CE058091860281326A
:1031F00049F68091E800877F8093E8000E940A1BCF
:103200008091890280937002089580918602813AAC
:1032100009F0B8CF8091E800877F8093E800809123
:10322000E80080FFFCCF80917002C2CF84B7877F17
:1032300084BF0FB6F894A895809160008861809350
:103240006000109260000FBE80E890E00FB6F89426
:1032500080936100909361000FBE0C94A0160E94B1
:103260005A1B0E94B71BE2EEF0E0808184608083ED
:1032700078940C94401E8CE091E00C94671580913A
:1032800085028530A9F480918502853011F00C9477
:1032900011170E94E616809183028823A1F30E94F1
:1032A000AA16882381F30E94B4190E94CE05EBCFA1
:1032B000089508950C945C19292F33272330310584
:1032C00019F168F42130310509F444C02230310588
:1032D00009F445C090E080E030E020E025C02132D4
:1032E000310549F122323105A9F780E490E02FE45D
:1032F00032E061157105C1F086EB90E029E931E01B
:103300006130710589F0E6CF99278130910581F010
:10331000009729F00297F1F6E0E1F1E002C0E8E45D
:10332000F1E0849190E09F01FA01318320830895B8
:10333000E6E2F1E0F6CF89E090E02EE531E06115BC
:10334000710591F389E090E027E731E06130710584
:1033500059F3C0CF82E190E027E831E0E5CF8BE37D
:1033600090E02CE431E0E0CF80E189BD82E189BDCD
:1033700009B400FEFDCF8091D8008F7D8093D800E6
:103380008091E00082608093E0008091E00081FD08
:10339000FCCF0895AF92BF92CF92DF92FF920F932E
:1033A0001F93CF93DF936C01EB018A010E94291BCD
:1033B000F82E811123C00115110539F0F801808123
:1033C0009181C81BD90BC80ED91EB12CA12C2097F6
:1033D000A9F08091E80085FD22C08091E8008E77F9
:1033E0008093E80001151105A1F0F8018081918119
:1033F000A80EB91EB182A08285E0F82E8F2DDF9134
:10340000CF911F910F91FF90DF90CF90BF90AF9021
:1034100008950E94291B8823D1F2F82EEFCFF601E0
:1034200081916F018093F1002197FFEFAF1ABF0ADE
:10343000CECFFC0180918C0290918D028617970768
:10344000A0F06115710529F49091E8009E779093A2
:10345000E80090E06115710551F4911108C0809168
:10346000E80082FF34C080E00895BC01F2CF809173
:1034700085028823C1F18530C1F18091E80083FD88
:1034800030C08091E80082FDEACF8091E80080FFA3
:10349000E1CF8091F3002091F200382F6115710582
:1034A00019F02830310558F091E02830310509F045
:1034B00090E02091E8002E772093E800CBCF819117
:1034C0008093F100615071092F5F3F4FE7CF8091EA
:1034D0008502882341F0853041F08091E80083FF28
:1034E000BECF81E0089582E0089583E00895FC0155
:1034F00080918C0290918D0286179707A0F061153C
:10350000710529F48091E8008E778093E80090E0BF
:103510006115710551F4911108C08091E80082FF96
:1035200035C080E00895BC01F2CF809185028823E8
:10353000C9F18530C9F18091E80083FD31C08091E7
:10354000E80082FDEACF8091E80080FFE1CF809122
:10355000F3002091F200382F6115710519F0283021
:10356000310558F091E02830310509F090E0809164
:10357000E8008E778093E800CBCF84918093F100B0
:103580003196615071092F5F3F4FE6CF80918502E0
:10359000882341F0853041F08091E80083FFBDCF62
:1035A00081E0089582E0089583E00895982F973090
:1035B00028F08F708093E90081E008959093E900EE
:1035C000242F762F50E0981731F07091EC00209165
:1035D000ED005091F00021FD02C09F5FE8CF3091D7
:1035E000EB003E7F3093EB003091ED003D7F309358
:1035F000ED003091EB0031603093EB007093EC0004
:103600002093ED005093F0002091EE0027FDE5CFD0
:1036100080E008958091860287FF13C08091E800C2
:1036200082FF06C08091E8008B778093E80004C099
:10363000809185028111F2CF0895809185028823BF
:10364000D9F38091E80080FFF8CF8091E8008E7771
:10365000ECCF2091E4003091E50095E6A90120919E
:10366000EC00822F817020FF06C08091E80080FF6F
:1036700006C080E008952091E80022FD1AC08091E4
:103680008502882389F0853089F08091EB0085FDE3
:103690000FC02091E4003091E50042175307F9F282
:1036A0009150E1F684E0089582E0089583E0089562
:1036B00081E008950E94C81B0E94D01BE0EEF0E05C
:1036C000808181608083E8EDF0E080818F77808366
:1036D00019BCA7EDB0E08C918E7F8C9380818F7E9A
:1036E00080831092840208950F931F93CF93DF93EA
:1036F0000E94C81B0E94D01BC8EDD0E088818F7744
:10370000888388818068888388818F7D888319BCBD
:10371000109285021092810210928302109282020E
:1037200000EE10E0F80180818B7F808388818160CA
:10373000888342E060E080E00E94D61AE1EEF0E08B
:1037400080818E7F8083E2EEF0E0808181608083E3
:10375000808188608083F80180818E7F808388816A
:1037600080618883DF91CF911F910F910895E8EDDB
:10377000F0E080818F7E8083E7EDF0E080818160E2
:10378000808384E082BF81E0809384020C94741B68
:10379000E8EDF0E080818E7F80831092E200089552
:1037A0001092DA001092E10008951F920F920FB666
:1037B0000F9211242F933F934F935F936F937F93B7
:1037C0008F939F93AF93BF93EF93FF938091E1000B
:1037D00082FF0BC08091E20082FF07C08091E10070
:1037E0008B7F8093E1000E943F1E8091DA0080FF72
:1037F00019C08091D80080FF15C08091DA008E7FBB
:103800008093DA008091D90080FF96C080E189BD65
:1038100082E189BD09B400FEFDCF81E0809385027D
:103820000E9425188091E10080FF19C08091E2007C
:1038300080FF15C08091E2008E7F8093E20080912E
:10384000E20080618093E2008091D80080628093E2
:10385000D80019BC85E0809385020E9438188091B9
:10386000E10084FF2BC08091E20084FF27C080E14B
:1038700089BD82E189BD89B5982F917080FFFBCF0A
:103880008091D8008F7D8093D8008091E1008F7E59
:103890008093E1008091E2008F7E8093E20080912E
:1038A000E20081608093E20080918102882309F424
:1038B00049C084E0809385020E9440188091E10015
:1038C00083FF29C08091E20083FF25C08091E10041
:1038D000877F8093E10082E08093850210928102CD
:1038E0008091E1008E7F8093E1008091E2008E7FE5
:1038F0008093E2008091E20080618093E20042E0E8
:1039000060E080E00E94D61A8091F0008860809389
:10391000F0000E943618FF91EF91BF91AF919F91F7
:103920008F917F916F915F914F913F912F910F9068
:103930000FBE0F901F90189519BC109285020E941F
:10394000331870CF8091E30087FD93E09093850258
:10395000B3CF1F920F920FB60F9211242F933F9364
:103960004F935F936F937F938F939F93AF93BF9387
:10397000CF93DF93EF93FF93D091E900DF708091B5
:10398000EC00C82FC17080FDC0E81092E900809162
:10399000F000877F8093F00078940E94ED1C1092D5
:1039A000E9008091F00088608093F000CD2BCF700B
:1039B000C093E900FF91EF91DF91CF91BF91AF915B
:1039C0009F918F917F916F915F914F913F912F9137
:1039D0000F900FBE0F901F9018951F93CF93DF93FA
:1039E000CDB7DEB7AA970FB6F894DEBF0FBECDBF36
:1039F00086E892E02091F100FC012193CF01F2E0F2
:103A00008E389F07B9F70E945E188091E80083FF07
:103A10001EC180918602909187029A3008F017C1EA
:103A2000E92FF0E0EA51F14E0C946F1E803899F0C6
:103A3000823809F00CC180918A028F70873008F0BB
:103A400006C18093E9008091EB0085FB882780F90F
:103A50001092E90006C08091820290918302911138
:103A600082609091E800977F9093E8008093F10046
:103A70001092F1008091E8008E77E5C0882309F468
:103A8000D3C0823009F0E3C0809188028111D6C092
:103A900080918A028F702FEF280F263008F0D7C050
:103AA0008093E9002091EB0020FFC8C0933031F4EF
:103AB0008091EB0080628093EB00C0C09091EB009E
:103AC00090619093EB0021E030E001C0220F8A95D5
:103AD000EAF72093EA001092EA008091EB008860F8
:103AE000EACF8111B4C0109188021F778091E30062
:103AF0008078812B8093E3008091E800877F80931A
:103B0000E8000E940A1B8091E80080FFFCCF8091B2
:103B1000E30080688093E30082E0111183E08093EA
:103B2000850295C08058823008F091C0809188024B
:103B3000909189028C3D23E09207A1F583E08A836E
:103B40008AE289834FB7F894DE01139620E03EE0C5
:103B500051E2E32FF0E050935700E49120FF03C0BF
:103B6000E295EF703F5FEF708E2F90E0EA30C0F08B
:103B7000C7968D939D932F5F243159F74FBF809146
:103B8000E800877F8093E8006AE270E0CE0101964A
:103B90000E94191A8091E8008B778093E80057C043
:103BA000C096E7CF60918A0270918B02AE014F5FA1
:103BB0005F4F0E945A19BC01892B09F448C09091AB
:103BC000E800977F9093E80089819A810E94771A94
:103BD000E1CF8038E1F58091E800877F8093E800AD
:103BE000809181028093F10045CF811130C0909186
:103BF0008802923060F58091E800877F8093E8002A
:103C0000909381020E940A1B80918102882311F007
:103C100084E005C08091E30087FDFACF81E08093C6
:103C200085020E944A1813C080918802813079F47D
:103C300081E0933009F080E0809383021092E900E4
:103C40008091E800877F8093E8000E940A1B8091A2
:103C5000E80083FF0AC08091E800877F8093E80036
:103C60008091EB0080628093EB00AA960FB6F894E7
:103C7000DEBF0FBECDBFDF91CF911F910895089594
:103C8000CF93809185028823A1F0C091E900CF7085
:103C90009091EC00892F817090FD80E8C82B1092E4
:103CA000E9008091E80083FD0E94ED1CCF70C09375
:103CB000E900CF91089597FB072E16F4009407D0E2
:103CC00077FD09D00E94751E07FC05D03EF4909543
:103CD00081959F4F0895709561957F4F0895EE0FE0
:103CE000FF1F0590F491E02D0994AA1BBB1B51E125
:103CF00007C0AA1FBB1FA617B70710F0A61BB70B5C
:103D0000881F991F5A95A9F780959095BC01CD0100
:103D10000895FB01DC0104C08D910190801921F40C
:103D200041505040C8F7881B990B0895F999FECF70
:103D300092BD81BDF89A992780B50895A8E1B0E0B9
:103D400042E050E00C94CA1E262FF999FECF92BD96
:103D500081BDF89A019700B4021639F01FBA20BD50
:103D60000FB6F894FA9AF99A0FBE08950396272F82
:103D70000E94A51E0E94A41E252F0E94A51E242F6E
:103D80000C94A51E0196272F0E94A51E0C94A41E1C
:103D9000DC01CB01FC01F999FECF06C0F2BDE1BD0B
:103DA000F89A319600B40D9241505040B8F70895FA
:103DB000F894FFCF8F038F03C003C00353046F0435
:103DC000EF03EF037A04060515051505161D3E1DC4
:103DD000271E3E1D271E711D921D271EE91DF51D64
:103DE000C8000002280850011E0A14018D17B217DE
:103DF000911721181D18901701E200E900EA00B59B
:103E000000B600B700CD008301CC008A0192019476
:103E1000012102230224022502260227022A02B3DC
:103E200000B4006F007000818283E200E900EA00C4
:103E3000B500B600B700CD008301CC008A01920125
:103E400094012102230224022502260227022A02CB
:103E5000B300B4006F0070008182839466F732F47F
:063E6000F5F636343500D2
:00000001FF
